{
  "transactions": [
    {
      "hash": "0xe720e10734bcf83944166072e86bf934d271c0ded282c3cdc40e73a35de357c7",
      "transactionType": "CALL",
      "contractName": null,
      "contractAddress": "0x1ea7181ce1bc6867a33817660e11fde1c6323952",
      "function": "setChainInfo(address,uint256)",
      "arguments": [
        "0x1EA7181cE1Bc6867A33817660E11FdE1C6323952",
        "111551119090"
      ],
      "transaction": {
        "from": "0xb4032ff3335f0e54fb0291793b35955e5da30b0c",
        "to": "0x1ea7181ce1bc6867a33817660e11fde1c6323952",
        "gas": "0xfd16",
        "value": "0x0",
        "input": "0xbcdb7d490000000000000000000000001ea7181ce1bc6867a33817660e11fde1c632395200000000000000000000000000000000000000000000000000000019f8f6fef2",
        "nonce": "0x4c",
        "chainId": "0x19f8f6fef2"
      },
      "additionalContracts": [],
      "isFixedGasLimit": false
    }
  ],
  "receipts": [
    {
      "status": "0x1",
      "cumulativeGasUsed": "0x16266",
      "logs": [],
      "logsBloom": "0x00000000000000000000000000000000000000000000000000000000000000000000000000000000000000000000000000000000000000000000000000000000000000000000000000000000000000000000000000000000000000000000000000000000000000000000000000000000000000000000000000000000000000000000000000000000000000000000000000000000000000000000000000000000000000000000000000000000000000000000000000000000000000000000000000000000000000000000000000000000000000000000000000000000000000000000000000000000000000000000000000000000000000000000000000000000",
      "type": "0x2",
      "transactionHash": "0xe720e10734bcf83944166072e86bf934d271c0ded282c3cdc40e73a35de357c7",
      "transactionIndex": "0x1",
      "blockHash": "0xc01a53a9415e1027217873402d550b705a1daa28e962ed2efeca52915fc43f3a",
      "blockNumber": "0x3395e6",
      "gasUsed": "0xb73c",
      "effectiveGasPrice": "0xfd",
      "from": "0xb4032ff3335f0e54fb0291793b35955e5da30b0c",
      "to": "0x1ea7181ce1bc6867a33817660e11fde1c6323952",
      "contractAddress": null,
      "l1BaseFeeScalar": "0x558",
      "l1BlobBaseFee": "0x1",
      "l1BlobBaseFeeScalar": "0xc5fc5",
      "l1Fee": "0x74",
      "l1GasPrice": "0x10",
      "l1GasUsed": "0x640"
    }
  ],
  "libraries": [],
  "pending": [],
  "returns": {},
  "timestamp": 1753127748,
  "chain": 111551119090,
  "commit": "64e4efa"
}