{
  "transactions": [
    {
      "hash": "0xddaeb9cb9e82f3483e6ee6031530d40e56c1d6a1eeb94209825f0e66be87a784",
      "transactionType": "CALL",
      "contractName": null,
      "contractAddress": "0x9d45ecd5c711c3f8385c0fbd1101a02f36b13c71",
      "function": "setChainInfo(address,address,uint256)",
      "arguments": [
        "0x58Cc85b8D04EA49cC6DBd3CbFFd00B4B8D6cb3ef",
        "0x1EA7181cE1Bc6867A33817660E11FdE1C6323952",
        "111551119090"
      ],
      "transaction": {
        "from": "0xb4032ff3335f0e54fb0291793b35955e5da30b0c",
        "to": "0x9d45ecd5c711c3f8385c0fbd1101a02f36b13c71",
        "gas": "0x18ae3",
        "value": "0x0",
        "input": "0x1230b14c00000000000000000000000058cc85b8d04ea49cc6dbd3cbffd00b4b8d6cb3ef0000000000000000000000001ea7181ce1bc6867a33817660e11fde1c632395200000000000000000000000000000000000000000000000000000019f8f6fef2",
        "nonce": "0x679",
        "chainId": "0xaa36a7"
      },
      "additionalContracts": [],
      "isFixedGasLimit": false
    }
  ],
  "receipts": [
    {
      "status": "0x1",
      "cumulativeGasUsed": "0xf4f6a6",
      "logs": [],
      "logsBloom": "0x00000000000000000000000000000000000000000000000000000000000000000000000000000000000000000000000000000000000000000000000000000000000000000000000000000000000000000000000000000000000000000000000000000000000000000000000000000000000000000000000000000000000000000000000000000000000000000000000000000000000000000000000000000000000000000000000000000000000000000000000000000000000000000000000000000000000000000000000000000000000000000000000000000000000000000000000000000000000000000000000000000000000000000000000000000000",
      "type": "0x2",
      "transactionHash": "0xddaeb9cb9e82f3483e6ee6031530d40e56c1d6a1eeb94209825f0e66be87a784",
      "transactionIndex": "0x87",
      "blockHash": "0x0d69954590a0719366787e91a23bd02d8c4fd814e8ca6f31d619f6f1006f7136",
      "blockNumber": "0x867a01",
      "gasUsed": "0x10e03",
      "effectiveGasPrice": "0xf4251",
      "from": "0xb4032ff3335f0e54fb0291793b35955e5da30b0c",
      "to": "0x9d45ecd5c711c3f8385c0fbd1101a02f36b13c71",
      "contractAddress": null
    }
  ],
  "libraries": [],
  "pending": [],
  "returns": {},
  "timestamp": 1753127568,
  "chain": 11155111,
  "commit": "64e4efa"
}