{
  "transactions": [
    {
      "hash": "0xc5536738cf524d9116a4948350f2b005ec0acf3b29972b4879a2cca054fe78a7",
      "transactionType": "CALL",
      "contractName": null,
      "contractAddress": "0x1ea7181ce1bc6867a33817660e11fde1c6323952",
      "function": "registerToken(address,address,uint256)",
      "arguments": [
        "0x1c7D4B196Cb0C7B01d743Fbc6116a902379C7238",
        "0x5fd84259d66Cd46123540766Be93DFE6D43130D7",
        "111551119090"
      ],
      "transaction": {
        "from": "0xb4032ff3335f0e54fb0291793b35955e5da30b0c",
        "to": "0x1ea7181ce1bc6867a33817660e11fde1c6323952",
        "gas": "0x14a4f",
        "value": "0x0",
        "input": "0xb6f7134b0000000000000000000000001c7d4b196cb0c7b01d743fbc6116a902379c72380000000000000000000000005fd84259d66cd46123540766be93dfe6d43130d700000000000000000000000000000000000000000000000000000019f8f6fef2",
        "nonce": "0x4b",
        "chainId": "0x19f8f6fef2"
      },
      "additionalContracts": [],
      "isFixedGasLimit": false
    }
  ],
  "receipts": [
    {
      "status": "0x1",
      "cumulativeGasUsed": "0x18d05",
      "logs": [],
      "logsBloom": "0x00000000000000000000000000000000000000000000000000000000000000000000000000000000000000000000000000000000000000000000000000000000000000000000000000000000000000000000000000000000000000000000000000000000000000000000000000000000000000000000000000000000000000000000000000000000000000000000000000000000000000000000000000000000000000000000000000000000000000000000000000000000000000000000000000000000000000000000000000000000000000000000000000000000000000000000000000000000000000000000000000000000000000000000000000000000",
      "type": "0x2",
      "transactionHash": "0xc5536738cf524d9116a4948350f2b005ec0acf3b29972b4879a2cca054fe78a7",
      "transactionIndex": "0x1",
      "blockHash": "0x2dc6129dae4e7cd9c858f639ede3b6d0ec5b35e08e2207b4b21e4fb63143ae29",
      "blockNumber": "0x33958c",
      "gasUsed": "0xe1db",
      "effectiveGasPrice": "0xfd",
      "from": "0xb4032ff3335f0e54fb0291793b35955e5da30b0c",
      "to": "0x1ea7181ce1bc6867a33817660e11fde1c6323952",
      "contractAddress": null,
      "l1BaseFeeScalar": "0x558",
      "l1BlobBaseFee": "0x1",
      "l1BlobBaseFeeScalar": "0xc5fc5",
      "l1Fee": "0x87",
      "l1GasPrice": "0x16",
      "l1GasUsed": "0x68a"
    }
  ],
  "libraries": [],
  "pending": [],
  "returns": {},
  "timestamp": 1753127209,
  "chain": 111551119090,
  "commit": "64e4efa"
}